:100000000C9434000C9451000C9451000C94510049
:100010000C9451000C9451000C9451000C9451001C
:100020000C9451000C9451000C9451000C9451000C
:100030000C9451000C9451000C9451000C945100FC
:100040000C9451000C9451000C9451000C945100EC
:100050000C9451000C9451000C9451000C945100DC
:100060000C9451000C94510011241FBECFEFD8E026
:10007000DEBFCDBF14E0A0E0B1E0ECE1F9E002C0EA
:1000800005900D92AE3CB107D9F724E0AEECB4E098
:1000900001C01D92A23DB207E1F70E94C3020C9479
:1000A0008C040C940000E0ECF0E080818823ECF7F5
:1000B0008091C6000895CF93C82F8A3019F48DE03F
:1000C0000E945B00E0ECF0E0808185FFFDCFC093F3
:1000D000C600CF910895CF93DF93EC0188818823E8
:1000E00031F021960E945B0089918111FBCFDF9155
:1000F000CF9108950F931F93CF93DF93FC0120813D
:100100002A3071F0EC018E010E94530089938D30EA
:1001100041F00E945B008E0188818A30A1F701C006
:100120008C01F8011082DF91CF911F910F910895FA
:10013000181619066CF420E030E0EFE9FFE0319783
:10014000F1F700C000002F5F3F4F82179307A9F718
:100150000895CF93DF93EC0189E091E00E946B005A
:1001600086E191E00E946B008AE291E00E946B00C0
:100170008FE391E00E946B000E945300843669F087
:10018000833741F0813661F482E591E00E946B0093
:1001900018820BC081E0888308C082E0888305C094
:1001A000188283E691E00E946B00DF91CF91089561
:1001B000CF93DF93EC0188E891E00E946B0089E91E
:1001C00091E00E946B0086EA91E00E946B0088EB50
:1001D00091E00E946B000E945300823311F18D3632
:1001E00009F43BC0813309F03AC089EC91E00E94E8
:1001F0006B008FE39CE90197F1F700C0000083B723
:10020000817F866083BF83B7816083BF889583B712
:100210008E7F83BF8FE99FE00197F1F700C0000058
:1002200023C089EC91E00E946B008FE39CE9019769
:10023000F1F700C0000083B7817F846083BF83B77C
:10024000816083BF889583B78E7F83BF8FE99FE0EE
:100250000197F1F700C0000007C0188205C018829E
:1002600089EE91E00E946B00DF91CF910895CF93CA
:10027000DF93EC018DE092E00E946B008CE192E054
:100280000E946B008AE292E00E946B0082E492E09E
:100290000E946B0088EB91E00E946B000E9453006B
:1002A000823361F018F4813331F010C0833349F0A8
:1002B0008D3651F00BC083E088830DC084E08883C5
:1002C0000AC085E0888307C0188205C0188280E6CE
:1002D00092E00E946B00DF91CF910895CF93DF935E
:1002E000EC01559A89E892E00E946B008AE992E05D
:1002F0000E946B0085EA92E00E946B000E9453000E
:100300008E3631F0893739F4559882E0888308C0F9
:1003100082E0888305C018828FEA92E00E946B0019
:10032000DF91CF910895EF92FF920F931F93CF9398
:10033000DF9361E070E088E090E00E9422038C018E
:1003400061E070E088E090E00E9422037C01559813
:1003500083ED92E00E946B008CEE92E00E946B00B5
:10036000C8010E947A008CE193E00E946B00C701F3
:100370000E947A008FE493E00E946B008091C0009D
:1003800088238CF0C0ECD0E0559AC8010E945F042D
:100390000E9498005598C7010E945F040E9498002F
:1003A000888188238CF7E1ECF0E080818F7E808368
:1003B000808180618083C8010E94D603C7010E94AA
:1003C000D603DF91CF911F910F91FF90EF90089589
:1003D0000F931F93CF93DF938C0161E070E088E06F
:1003E00090E00E942203EC0187E693E00E946B00FC
:1003F0008CE793E00E946B0080E993E00E946B0021
:1004000089EA93E00E946B0085E794E00E946B000C
:1004100089EB91E00E946B000E9453008333F9F056
:1004200028F4813341F0823351F023C08236D1F079
:100430008D36E1F01EC082E0F80180831EC0559821
:1004400083EC93E00E946B00CE010E947A00559AE3
:10045000CE010E945F040E94980055980EC00E9431
:1004600093010BC082E0F801808307C0F80110827D
:1004700004C08AEF93E00E946B00CE010E94D60375
:10048000DF91CF911F910F9108950F931F93CF93F9
:10049000DF938C0161E070E088E090E00E9422032D
:1004A000EC01559A87E294E00E946B0081E494E0AD
:1004B0000E946B008CE494E00E946B008AE594E05B
:1004C0000E946B0086E694E00E946B0084E794E053
:1004D0000E946B0088EB91E00E946B000E94530029
:1004E000833399F028F4813351F0823359F02EC0D0
:1004F000823629F18D3639F1843341F509C08AE11C
:1005000087BD28C080E887BD25C086EE87BD22C094
:1005100080E894E00E946B00CE010E947A00CE0138
:100520000E945F042FEFAC01249FC001259F900D16
:10053000112464E670E00E94FA0267BD0BC084E0FB
:10054000F801808307C0F801108204C086EA94E0B5
:100550000E946B00CE010E94D603DF91CF911F91C4
:100560000F91089585B5877F85BD84B5836084BD6F
:10057000089585B58B7F85BD85B58D7F85BD85B596
:10058000816085BD08950E94B20284B5806884BDF3
:100590000E94B90280E887BD61E070E081E090E0F0
:1005A0000E942203EC0118828881833099F028F49C
:1005B000813041F0823051F019C0843079F08530BB
:1005C00089F014C0CE010E94D800EECFCE010E9467
:1005D0003701EACFCE010E946E01E6CFCE010E9424
:1005E000E801E2CFCE010E944502DECFCE010E949B
:1005F000A900DACF97FB072E16F4009407D077FDF9
:1006000009D00E940E0307FC05D03EF49095819519
:100610009F4F0895709561957F4F0895AA1BBB1B4E
:1006200051E107C0AA1FBB1FA617B70710F0A61BF2
:10063000B70B881F991F5A95A9F780959095BC0113
:10064000CD0108950F931F93CF93DF93869F800171
:10065000879F100D969F100D1124C8010E943E0324
:10066000EC01009729F0A80160E070E00E947D0491
:10067000CE01DF91CF911F910F9108950F931F939A
:10068000CF93DF938230910510F482E090E0E09107
:10069000D004F091D10420E030E0A0E0B0E0309749
:1006A00019F1408151810281138148175907C8F01F
:1006B0008417950769F4109731F012960C931297EE
:1006C00013961C9327C00093D0041093D10422C02A
:1006D0002115310519F04217530718F49A01BD018D
:1006E000EF01DF01F801DBCF21153105F9F0281BFF
:1006F000390B2430310580F48A819B8161157105A5
:1007000021F0FB019383828304C09093D1048093F2
:10071000D004FE01329644C0FE01E20FF31F819324
:10072000919322503109398328833AC02091CE0415
:100730003091CF04232B41F4209102013091030129
:100740003093CF042093CE04209100013091010119
:100750002115310541F42DB73EB740910401509168
:100760000501241B350BE091CE04F091CF04E21774
:10077000F307A0F42E1B3F0B2817390778F0AC01C4
:100780004E5F5F4F2417350748F04E0F5F1F5093A1
:10079000CF044093CE048193919302C0E0E0F0E057
:1007A000CF01DF91CF911F910F910895CF93DF93E8
:1007B000009709F481C0FC01329713821282A09144
:1007C000D004B091D104109781F420813181820F3F
:1007D000931F2091CE043091CF042817390751F58B
:1007E000F093CF04E093CE0467C0ED0120E030E049
:1007F000CE17DF0740F44A815B819E014115510508
:10080000F1F0EA01F5CFD383C28340815181840F97
:10081000951FC817D90759F488819981840F951FAE
:100820000296918380838A819B81938382832115A1
:10083000310529F4F093D104E093D0043DC0E901DF
:10084000FB83EA8349915991C40FD51FEC17FD072B
:1008500061F480819181840F951F0296E90199834B
:100860008883828193819B838A83E0E0F0E0129603
:100870008D919C911397009719F0FD01DC01F7CF42
:100880008D919C9111979D012E5F3F4F820F931F79
:100890002091CE043091CF042817390769F430979E
:1008A00029F41092D1041092D00402C01382128253
:1008B000B093CF04A093CE04DF91CF910895FC01B3
:1008C00088279927E89421912032E9F3293010F004
:1008D0002E30C8F32B3241F02D3239F4689404C025
:1008E0000E948404820F911D219120532A30C0F36D
:1008F0001EF4909581959F4F0895DC0101C06D9382
:1009000041505040E0F708957AE0979F902D879FDF
:0C091000802D910D11240895F894FFCF64
:10091C000000D20420002566004D61696E204D65F3
:10092C006E753A0D0A00093C613E2048656C6C6F8F
:10093C0020576F726C64210D0A00093C733E2053E2
:10094C006C656570206F7074696F6E730D0A0009A9
:10095C003C643E204C454420636F6E74726F6C0D8A
:10096C000A000D0A48656C6C6F20576F726C64211D
:10097C000D0A004572726F722E6D796D61696E2869
:10098C00293A20556E617661696C61626C65206FE5
:10099C007074696F6E0D0A00536C656570204F7032
:1009AC0074696F6E733A0D0A00093C313E20536C2A
:1009BC006565700D0A00093C323E20506F776572F8
:1009CC0020646F776E0D0A00093C6D3E204D616905
:1009DC006E206D656E750D0A00507265737320681C
:1009EC006172647761726520627574746F6E2074C5
:1009FC006F2077616B650D0A004572726F722E73F2
:100A0C006C65657028293A20556E617661696C6158
:100A1C00626C65206F7074696F6E0D0A004C4544F2
:100A2C0020434F4E54524F4C3A0D0A00093C313E74
:100A3C00204C4544206F6E0D0A00093C323E204D7F
:100A4C006F7265204C4544206F7074696F6E730D26
:100A5C000A00093C333E204C4544206272696768A9
:100A6C00746E657373206F7074696F6E730D0A000A
:100A7C004572726F722E6C6564436F6E74726F6C1C
:100A8C0028293A20556E617661696C61626C65202B
:100A9C006F7074696F6E0D0A005475726E204C4540
:100AAC0044204F66663F3A0D0A00093C793E207996
:100ABC0065730D0A00093C6E3E206E6F0D0A0045F1
:100ACC0072726F722E6C65644F6E28293A20556EC7
:100ADC00617661696C61626C65206F7074696F6EB0
:100AEC000D0A005265706561746C7920426C696EF8
:100AFC006B20746865204C45440D0A00496E707576
:100B0C007420686F77206C6F6E6720796F75207713
:100B1C00616E7420746865204C454420746F2062AB
:100B2C006C696E6B286D73293A0D0A00486F77203B
:100B3C006672657175656E746C7920646F20796F5F
:100B4C00752077616E7420746865204C4544207460
:100B5C006F20626C696E6B286D73293A0D0A005018
:100B6C007265737320616E79206B657920746F20C8
:100B7C0073746F700D0A004F74686572204C454495
:100B8C00204F7074696F6E733A0D0A003C313E2031
:100B9C004C45442072656D61696E206F6E0D0A00C4
:100BAC003C323E204C454420626C696E6B206F6E6B
:100BBC00652074696D650D0A003C333E204C45443C
:100BCC0020626C696E6B2066756E6374696F6E73F0
:100BDC000D0A00506C6561736520656E746572203A
:100BEC0074686520686F77206C6F6E6720796F75FD
:100BFC002077616E7420746865206C656420746F56
:100C0C0020626C696E6B3A0D0A004572726F722E1F
:100C1C006D6F72654C65644F7074696F6E732829C3
:100C2C003A20556E617661696C61626C65206F70FB
:100C3C0074696F6E0D0A004C4544206272696768D6
:100C4C00746E657373204F7074696F6E733A0D0A0E
:100C5C0000093C313E204C6F770D0A00093C323EB6
:100C6C00204D656469756D0D0A00093C333E2048C2
:100C7C006967680D0A00093C343E20437573746F34
:100C8C006D0D0A00093C623E204261636B0D0A0047
:100C9C00496E707574206465736972656420627244
:100CAC00696768746E6573733F202830202D203976
:100CBC0039293A0D0A004572726F722E6C656442C6
:100CCC00726967687428293A20556E617661696C7F
:0E0CDC0061626C65206F7074696F6E0D0A00A6
:00000001FF
