S01700004763634170706C69636174696F6E312E737265635B
S11300000C9434000C9451000C9451000C94510045
S11300100C9451000C9451000C9451000C94510018
S11300200C9451000C9451000C9451000C94510008
S11300300C9451000C9451000C9451000C945100F8
S11300400C9451000C9451000C9451000C945100E8
S11300500C9451000C9451000C9451000C945100D8
S11300600C9451000C94510011241FBECFEFD8E022
S1130070DEBFCDBF14E0A0E0B1E0E6E7F1E002C0EE
S113008005900D92A83CB107D9F724E0A8ECB4E0A0
S113009001C01D92A83CB207E1F70E94AD000C9488
S11300A0B9000C940000E0ECF0E080818823ECF7C8
S11300B08091C6000895CF93C82F8A3019F48DE03B
S11300C00E945B00E0ECF0E0808185FFFDCFC093EF
S11300D0C600CF910895CF93DF93EC0188818823E4
S11300E031F021960E945B0089918111FBCFDF9151
S11300F0CF91089583E091E00E946B0080E191E04C
S11301000E946B0084E291E00E946B0089E391E01D
S11301100E946B000E945300843669F0833759F0C3
S1130120813629F48CE491E00E946B0008958DE5FA
S113013091E00E946B00089585B5877F85BD84B5E5
S1130140836084BD089585B58B7F85BD85B58D7F1E
S113015085BD85B5816085BD08950E949C0084B5E8
S1130160806884BD0E94A30080E887BD0E947A0055
S1090170FDCFF894FFCF5F
S11301762566004D61696E204D656E753A0D0A005F
S1130186093C613E2048656C6C6F20576F726C6445
S1130196210D0A00093C733E20536C656570206F7F
S11301A67074696F6E730D0A00093C643E204C45F9
S11301B64420636F6E74726F6C0D0A000D0A4865F5
S11301C66C6C6F20576F726C64210D0A0045727255
S11301D66F722E6D796D61696E28293A20556E61AC
S11301E67661696C61626C65206F7074696F6E0DFF
S11301F60A00536C656570204F7074696F6E733AAC
S11302060D0A00093C313E20536C6565700D0A00E9
S1130216093C323E20506F77657220646F776E0D0D
S11302260A00093C6D3E204D61696E206D656E7550
S11302360D0A005072657373206861726477617287
S11302466520627574746F6E20746F2077616B65B8
S11302560D0A004572726F722E736C6565702829DB
S11302663A20556E617661696C61626C65206F70C7
S113027674696F6E0D0A004C454420434F4E545228
S11302864F4C3A0D0A00093C313E204C4544206F40
S11302966E0D0A00093C323E204D6F7265204C45B6
S11302A644206F7074696F6E730D0A00093C333E07
S11302B6204C4544206272696768746E65737320C6
S11302C66F7074696F6E730D0A004572726F722EC9
S11302D66C6564436F6E74726F6C28293A20556E90
S11302E6617661696C61626C65206F7074696F6EAA
S11302F60D0A005475726E204C4544204F66663FC5
S11303063A0D0A00093C793E207965730D0A000905
S11303163C6E3E206E6F0D0A004572726F722E6C33
S113032665644F6E28293A20556E617661696C6161
S1130336626C65206F7074696F6E0D0A0052657089
S11303466561746C7920426C696E6B2074686520F3
S11303564C45440D0A00496E70757420686F772009
S11303666C6F6E6720796F752077616E7420746880
S113037665204C454420746F20626C696E6B286D51
S113038673293A0D0A00486F7720667265717565A0
S11303966E746C7920646F20796F752077616E7442
S11303A620746865204C454420746F20626C696E25
S11303B66B286D73293A0D0A0050726573732061B8
S11303C66E79206B657920746F2073746F700D0AD3
S11303D6004F74686572204C4544204F7074696FF1
S11303E66E733A0D0A003C313E204C45442072653A
S11303F66D61696E206F6E0D0A003C323E204C45DD
S11304064420626C696E6B206F6E652074696D653D
S11304160D0A003C333E204C454420626C696E6BE9
S11304262066756E6374696F6E730D0A00506C6591
S113043661736520656E7465722074686520686FE3
S113044677206C6F6E6720796F752077616E7420E4
S1130456746865206C656420746F20626C696E6BC9
S11304663A0D0A004572726F722E6D6F72654C6595
S1130476644F7074696F6E7328293A20556E6176DD
S113048661696C61626C65206F7074696F6E0D0AC8
S1130496004C4544206272696768746E6573732004
S11304A64F7074696F6E733A0D0A00093C313E2031
S11304B64C6F770D0A00093C323E204D6564697520
S11304C66D0D0A00093C333E20486967680D0A0031
S11304D6093C343E20437573746F6D0D0A00093C64
S11304E6623E204261636B0D0A00496E707574208A
S11304F664657369726564206272696768746E659F
S113050673733F202830202D203939293A0D0A00EB
S11305164572726F722E6C656442726967687428DC
S1130526293A20556E617661696C61626C65206F4B
S10B05367074696F6E0D0A0078
S9030000FC
